{
  "_format": "hh-sol-artifact-1",
  "contractName": "Devo",
  "sourceName": "contracts/Devo.sol",
  "abi": [
    {
      "inputs": [],
      "stateMutability": "nonpayable",
      "type": "constructor"
    },
    {
      "anonymous": false,
      "inputs": [
        {
          "indexed": true,
          "internalType": "address",
          "name": "owner",
          "type": "address"
        },
        {
          "indexed": true,
          "internalType": "address",
          "name": "spender",
          "type": "address"
        },
        {
          "indexed": false,
          "internalType": "uint256",
          "name": "value",
          "type": "uint256"
        }
      ],
      "name": "Approval",
      "type": "event"
    },
    {
      "anonymous": false,
      "inputs": [
        {
          "indexed": true,
          "internalType": "address",
          "name": "delegator",
          "type": "address"
        },
        {
          "indexed": true,
          "internalType": "address",
          "name": "fromDelegate",
          "type": "address"
        },
        {
          "indexed": true,
          "internalType": "address",
          "name": "toDelegate",
          "type": "address"
        }
      ],
      "name": "DelegateChanged",
      "type": "event"
    },
    {
      "anonymous": false,
      "inputs": [
        {
          "indexed": true,
          "internalType": "address",
          "name": "delegate",
          "type": "address"
        },
        {
          "indexed": false,
          "internalType": "uint256",
          "name": "previousBalance",
          "type": "uint256"
        },
        {
          "indexed": false,
          "internalType": "uint256",
          "name": "newBalance",
          "type": "uint256"
        }
      ],
      "name": "DelegateVotesChanged",
      "type": "event"
    },
    {
      "anonymous": false,
      "inputs": [
        {
          "indexed": true,
          "internalType": "address",
          "name": "from",
          "type": "address"
        },
        {
          "indexed": true,
          "internalType": "address",
          "name": "to",
          "type": "address"
        },
        {
          "indexed": false,
          "internalType": "uint256",
          "name": "value",
          "type": "uint256"
        }
      ],
      "name": "Transfer",
      "type": "event"
    },
    {
      "inputs": [],
      "name": "DOMAIN_SEPARATOR",
      "outputs": [
        {
          "internalType": "bytes32",
          "name": "",
          "type": "bytes32"
        }
      ],
      "stateMutability": "view",
      "type": "function"
    },
    {
      "inputs": [
        {
          "internalType": "address",
          "name": "owner",
          "type": "address"
        },
        {
          "internalType": "address",
          "name": "spender",
          "type": "address"
        }
      ],
      "name": "allowance",
      "outputs": [
        {
          "internalType": "uint256",
          "name": "",
          "type": "uint256"
        }
      ],
      "stateMutability": "view",
      "type": "function"
    },
    {
      "inputs": [
        {
          "internalType": "address",
          "name": "spender",
          "type": "address"
        },
        {
          "internalType": "uint256",
          "name": "amount",
          "type": "uint256"
        }
      ],
      "name": "approve",
      "outputs": [
        {
          "internalType": "bool",
          "name": "",
          "type": "bool"
        }
      ],
      "stateMutability": "nonpayable",
      "type": "function"
    },
    {
      "inputs": [
        {
          "internalType": "address",
          "name": "account",
          "type": "address"
        }
      ],
      "name": "balanceOf",
      "outputs": [
        {
          "internalType": "uint256",
          "name": "",
          "type": "uint256"
        }
      ],
      "stateMutability": "view",
      "type": "function"
    },
    {
      "inputs": [
        {
          "internalType": "address",
          "name": "account",
          "type": "address"
        },
        {
          "internalType": "uint32",
          "name": "pos",
          "type": "uint32"
        }
      ],
      "name": "checkpoints",
      "outputs": [
        {
          "components": [
            {
              "internalType": "uint32",
              "name": "fromBlock",
              "type": "uint32"
            },
            {
              "internalType": "uint224",
              "name": "votes",
              "type": "uint224"
            }
          ],
          "internalType": "struct ERC20Votes.Checkpoint",
          "name": "",
          "type": "tuple"
        }
      ],
      "stateMutability": "view",
      "type": "function"
    },
    {
      "inputs": [],
      "name": "decimals",
      "outputs": [
        {
          "internalType": "uint8",
          "name": "",
          "type": "uint8"
        }
      ],
      "stateMutability": "view",
      "type": "function"
    },
    {
      "inputs": [
        {
          "internalType": "address",
          "name": "spender",
          "type": "address"
        },
        {
          "internalType": "uint256",
          "name": "subtractedValue",
          "type": "uint256"
        }
      ],
      "name": "decreaseAllowance",
      "outputs": [
        {
          "internalType": "bool",
          "name": "",
          "type": "bool"
        }
      ],
      "stateMutability": "nonpayable",
      "type": "function"
    },
    {
      "inputs": [
        {
          "internalType": "address",
          "name": "delegatee",
          "type": "address"
        }
      ],
      "name": "delegate",
      "outputs": [],
      "stateMutability": "nonpayable",
      "type": "function"
    },
    {
      "inputs": [
        {
          "internalType": "address",
          "name": "delegatee",
          "type": "address"
        },
        {
          "internalType": "uint256",
          "name": "nonce",
          "type": "uint256"
        },
        {
          "internalType": "uint256",
          "name": "expiry",
          "type": "uint256"
        },
        {
          "internalType": "uint8",
          "name": "v",
          "type": "uint8"
        },
        {
          "internalType": "bytes32",
          "name": "r",
          "type": "bytes32"
        },
        {
          "internalType": "bytes32",
          "name": "s",
          "type": "bytes32"
        }
      ],
      "name": "delegateBySig",
      "outputs": [],
      "stateMutability": "nonpayable",
      "type": "function"
    },
    {
      "inputs": [
        {
          "internalType": "address",
          "name": "account",
          "type": "address"
        }
      ],
      "name": "delegates",
      "outputs": [
        {
          "internalType": "address",
          "name": "",
          "type": "address"
        }
      ],
      "stateMutability": "view",
      "type": "function"
    },
    {
      "inputs": [
        {
          "internalType": "uint256",
          "name": "blockNumber",
          "type": "uint256"
        }
      ],
      "name": "getPastTotalSupply",
      "outputs": [
        {
          "internalType": "uint256",
          "name": "",
          "type": "uint256"
        }
      ],
      "stateMutability": "view",
      "type": "function"
    },
    {
      "inputs": [
        {
          "internalType": "address",
          "name": "account",
          "type": "address"
        },
        {
          "internalType": "uint256",
          "name": "blockNumber",
          "type": "uint256"
        }
      ],
      "name": "getPastVotes",
      "outputs": [
        {
          "internalType": "uint256",
          "name": "",
          "type": "uint256"
        }
      ],
      "stateMutability": "view",
      "type": "function"
    },
    {
      "inputs": [
        {
          "internalType": "address",
          "name": "account",
          "type": "address"
        }
      ],
      "name": "getVotes",
      "outputs": [
        {
          "internalType": "uint256",
          "name": "",
          "type": "uint256"
        }
      ],
      "stateMutability": "view",
      "type": "function"
    },
    {
      "inputs": [
        {
          "internalType": "address",
          "name": "spender",
          "type": "address"
        },
        {
          "internalType": "uint256",
          "name": "addedValue",
          "type": "uint256"
        }
      ],
      "name": "increaseAllowance",
      "outputs": [
        {
          "internalType": "bool",
          "name": "",
          "type": "bool"
        }
      ],
      "stateMutability": "nonpayable",
      "type": "function"
    },
    {
      "inputs": [],
      "name": "name",
      "outputs": [
        {
          "internalType": "string",
          "name": "",
          "type": "string"
        }
      ],
      "stateMutability": "view",
      "type": "function"
    },
    {
      "inputs": [
        {
          "internalType": "address",
          "name": "owner",
          "type": "address"
        }
      ],
      "name": "nonces",
      "outputs": [
        {
          "internalType": "uint256",
          "name": "",
          "type": "uint256"
        }
      ],
      "stateMutability": "view",
      "type": "function"
    },
    {
      "inputs": [
        {
          "internalType": "address",
          "name": "account",
          "type": "address"
        }
      ],
      "name": "numCheckpoints",
      "outputs": [
        {
          "internalType": "uint32",
          "name": "",
          "type": "uint32"
        }
      ],
      "stateMutability": "view",
      "type": "function"
    },
    {
      "inputs": [
        {
          "internalType": "address",
          "name": "owner",
          "type": "address"
        },
        {
          "internalType": "address",
          "name": "spender",
          "type": "address"
        },
        {
          "internalType": "uint256",
          "name": "value",
          "type": "uint256"
        },
        {
          "internalType": "uint256",
          "name": "deadline",
          "type": "uint256"
        },
        {
          "internalType": "uint8",
          "name": "v",
          "type": "uint8"
        },
        {
          "internalType": "bytes32",
          "name": "r",
          "type": "bytes32"
        },
        {
          "internalType": "bytes32",
          "name": "s",
          "type": "bytes32"
        }
      ],
      "name": "permit",
      "outputs": [],
      "stateMutability": "nonpayable",
      "type": "function"
    },
    {
      "inputs": [],
      "name": "symbol",
      "outputs": [
        {
          "internalType": "string",
          "name": "",
          "type": "string"
        }
      ],
      "stateMutability": "view",
      "type": "function"
    },
    {
      "inputs": [],
      "name": "totalSupply",
      "outputs": [
        {
          "internalType": "uint256",
          "name": "",
          "type": "uint256"
        }
      ],
      "stateMutability": "view",
      "type": "function"
    },
    {
      "inputs": [
        {
          "internalType": "address",
          "name": "recipient",
          "type": "address"
        },
        {
          "internalType": "uint256",
          "name": "amount",
          "type": "uint256"
        }
      ],
      "name": "transfer",
      "outputs": [
        {
          "internalType": "bool",
          "name": "",
          "type": "bool"
        }
      ],
      "stateMutability": "nonpayable",
      "type": "function"
    },
    {
      "inputs": [
        {
          "internalType": "address",
          "name": "sender",
          "type": "address"
        },
        {
          "internalType": "address",
          "name": "recipient",
          "type": "address"
        },
        {
          "internalType": "uint256",
          "name": "amount",
          "type": "uint256"
        }
      ],
      "name": "transferFrom",
      "outputs": [
        {
          "internalType": "bool",
          "name": "",
          "type": "bool"
        }
      ],
      "stateMutability": "nonpayable",
      "type": "function"
    }
  ],
  "bytecode": "0x6101606040527f6e71edae12b1b97f4d1f60370fef10105fa2faae0126114a169c64845d6126c9610140523480156200003757600080fd5b50604051806040016040528060048152602001634465766f60e01b81525080604051806040016040528060018152602001603160f81b815250604051806040016040528060048152602001634465766f60e01b8152506040518060400160405280600381526020016244564f60e81b8152508160039080519060200190620000c1929190620007cc565b508051620000d7906004906020840190620007cc565b5050825160208085019190912083518483012060e08290526101008190524660a0818152604080517f8b73c3c69bb8fe3d512ecc4cf759cc79239f7b179b0ffacaa9a75d522b39400f81880181905281830187905260608201869052608082019490945230818401528151808203909301835260c0019052805194019390932091935091906080523060601b60c0526101205250620001a2935033925062000180915050601290565b6200018d90600a620008cc565b6200019c90620186a06200098b565b620001a8565b62000a1a565b620001bf8282620001c360201b62000b451760201c565b5050565b620001da82826200027a60201b62000be21760201c565b6001600160e01b03620001ee620003698216565b11156200025b5760405162461bcd60e51b815260206004820152603060248201527f4552433230566f7465733a20746f74616c20737570706c79207269736b73206f60448201526f766572666c6f77696e6720766f74657360801b60648201526084015b60405180910390fd5b62000274600862000ccd6200036f60201b178362000386565b50505050565b6001600160a01b038216620002d25760405162461bcd60e51b815260206004820152601f60248201527f45524332303a206d696e7420746f20746865207a65726f206164647265737300604482015260640162000252565b8060026000828254620002e6919062000868565b90915550506001600160a01b038216600090815260208190526040812080548392906200031590849062000868565b90915550506040518181526001600160a01b038316906000907fddf252ad1be2c89b69c2b068fc378daa952ba7f163c4a11628f55a4df523b3ef9060200160405180910390a3620001bf6000838362000561565b60025490565b60006200037d828462000868565b90505b92915050565b825460009081908015620003e45785620003a2600183620009ad565b81548110620003c157634e487b7160e01b600052603260045260246000fd5b60009182526020909120015464010000000090046001600160e01b0316620003e7565b60005b6001600160e01b03169250620003fe83858760201c565b91506000811180156200044e575043866200041b600184620009ad565b815481106200043a57634e487b7160e01b600052603260045260246000fd5b60009182526020909120015463ffffffff16145b15620004ce576200046a826200057960201b62000cd91760201c565b8662000478600184620009ad565b815481106200049757634e487b7160e01b600052603260045260246000fd5b9060005260206000200160000160046101000a8154816001600160e01b0302191690836001600160e01b0316021790555062000553565b856040518060400160405280620004f043620005e860201b62000d5c1760201c565b63ffffffff16815260200162000511856200057960201b62000cd91760201c565b6001600160e01b0390811690915282546001810184556000938452602093849020835194909301519091166401000000000263ffffffff909316929092179101555b50935093915050565b505050565b6200055c8383836200064f60201b62000dd81760201c565b60006001600160e01b03821115620005e45760405162461bcd60e51b815260206004820152602760248201527f53616665436173743a2076616c756520646f65736e27742066697420696e20326044820152663234206269747360c81b606482015260840162000252565b5090565b600063ffffffff821115620005e45760405162461bcd60e51b815260206004820152602660248201527f53616665436173743a2076616c756520646f65736e27742066697420696e203360448201526532206269747360d01b606482015260840162000252565b620006678383836200055c60201b62000e0a1760201c565b6001600160a01b038381166000908152600660205260408082205485841683529120546200055c92918216911683818314801590620006a65750600081115b156200055c576001600160a01b0383161562000733576001600160a01b038316600090815260076020908152604082208291620006f09190620007be901b62000e0f178562000386565b91509150846001600160a01b0316600080516020620027ca833981519152838360405162000728929190918252602082015260400190565b60405180910390a250505b6001600160a01b038216156200055c576001600160a01b0382166000908152600760209081526040822082916200077791906200036f901b62000ccd178562000386565b91509150836001600160a01b0316600080516020620027ca8339815191528383604051620007af929190918252602082015260400190565b60405180910390a25050505050565b60006200037d8284620009ad565b828054620007da90620009c7565b90600052602060002090601f016020900481019282620007fe576000855562000849565b82601f106200081957805160ff191683800117855562000849565b8280016001018555821562000849579182015b82811115620008495782518255916020019190600101906200082c565b50620005e49291505b80821115620005e4576000815560010162000852565b600082198211156200087e576200087e62000a04565b500190565b600181815b80851115620008c4578160001904821115620008a857620008a862000a04565b80851615620008b657918102915b93841c939080029062000888565b509250929050565b60006200037d60ff841683600082620008e85750600162000380565b81620008f75750600062000380565b81600181146200091057600281146200091b576200093b565b600191505062000380565b60ff8411156200092f576200092f62000a04565b50506001821b62000380565b5060208310610133831016604e8410600b841016171562000960575081810a62000380565b6200096c838362000883565b806000190482111562000983576200098362000a04565b029392505050565b6000816000190483118215151615620009a857620009a862000a04565b500290565b600082821015620009c257620009c262000a04565b500390565b600181811c90821680620009dc57607f821691505b60208210811415620009fe57634e487b7160e01b600052602260045260246000fd5b50919050565b634e487b7160e01b600052601160045260246000fd5b60805160a05160c05160601c60e051610100516101205161014051611d5262000a7860003960006109a3015260006111cc0152600061121b015260006111f60152600061114f01526000611179015260006111a30152611d526000f3fe608060405234801561001057600080fd5b50600436106101825760003560e01c806370a08231116100d8578063a457c2d71161008c578063d505accf11610066578063d505accf1461034e578063dd62ed3e14610361578063f1127ed81461039a57600080fd5b8063a457c2d714610315578063a9059cbb14610328578063c3cda5201461033b57600080fd5b80638e539e8c116100bd5780638e539e8c146102e757806395d89b41146102fa5780639ab24eb01461030257600080fd5b806370a08231146102ab5780637ecebe00146102d457600080fd5b80633644e5151161013a578063587cde1e11610114578063587cde1e1461022a5780635c19a95c1461026e5780636fcfff451461028357600080fd5b80633644e515146101fc57806339509351146102045780633a46b1a81461021757600080fd5b806318160ddd1161016b57806318160ddd146101c857806323b872dd146101da578063313ce567146101ed57600080fd5b806306fdde0314610187578063095ea7b3146101a5575b600080fd5b61018f6103d7565b60405161019c9190611c58565b60405180910390f35b6101b86101b3366004611b82565b610469565b604051901515815260200161019c565b6002545b60405190815260200161019c565b6101b86101e8366004611ade565b61047f565b6040516012815260200161019c565b6101cc610543565b6101b8610212366004611b82565b610552565b6101cc610225366004611b82565b61058e565b610256610238366004611a92565b6001600160a01b039081166000908152600660205260409020541690565b6040516001600160a01b03909116815260200161019c565b61028161027c366004611a92565b610608565b005b610296610291366004611a92565b610615565b60405163ffffffff909116815260200161019c565b6101cc6102b9366004611a92565b6001600160a01b031660009081526020819052604090205490565b6101cc6102e2366004611a92565b61063d565b6101cc6102f5366004611c40565b61065b565b61018f6106b7565b6101cc610310366004611a92565b6106c6565b6101b8610323366004611b82565b61075b565b6101b8610336366004611b82565b61080c565b610281610349366004611bab565b610819565b61028161035c366004611b19565b61094f565b6101cc61036f366004611aac565b6001600160a01b03918216600090815260016020908152604080832093909416825291909152205490565b6103ad6103a8366004611c02565b610ab3565b60408051825163ffffffff1681526020928301516001600160e01b0316928101929092520161019c565b6060600380546103e690611cfa565b80601f016020809104026020016040519081016040528092919081815260200182805461041290611cfa565b801561045f5780601f106104345761010080835404028352916020019161045f565b820191906000526020600020905b81548152906001019060200180831161044257829003601f168201915b5050505050905090565b6000610476338484610e1b565b50600192915050565b600061048c848484610f3f565b6001600160a01b03841660009081526001602090815260408083203384529091529020548281101561052b5760405162461bcd60e51b815260206004820152602860248201527f45524332303a207472616e7366657220616d6f756e742065786365656473206160448201527f6c6c6f77616e636500000000000000000000000000000000000000000000000060648201526084015b60405180910390fd5b6105388533858403610e1b565b506001949350505050565b600061054d611142565b905090565b3360008181526001602090815260408083206001600160a01b03871684529091528120549091610476918590610589908690611cab565b610e1b565b60004382106105df5760405162461bcd60e51b815260206004820152601f60248201527f4552433230566f7465733a20626c6f636b206e6f7420796574206d696e6564006044820152606401610522565b6001600160a01b03831660009081526007602052604090206106019083611269565b9392505050565b6106123382611342565b50565b6001600160a01b03811660009081526007602052604081205461063790610d5c565b92915050565b6001600160a01b038116600090815260056020526040812054610637565b60004382106106ac5760405162461bcd60e51b815260206004820152601f60248201527f4552433230566f7465733a20626c6f636b206e6f7420796574206d696e6564006044820152606401610522565b610637600883611269565b6060600480546103e690611cfa565b6001600160a01b0381166000908152600760205260408120548015610748576001600160a01b0383166000908152600760205260409020610708600183611ce3565b8154811061072657634e487b7160e01b600052603260045260246000fd5b60009182526020909120015464010000000090046001600160e01b031661074b565b60005b6001600160e01b03169392505050565b3360009081526001602090815260408083206001600160a01b0386168452909152812054828110156107f55760405162461bcd60e51b815260206004820152602560248201527f45524332303a2064656372656173656420616c6c6f77616e63652062656c6f7760448201527f207a65726f0000000000000000000000000000000000000000000000000000006064820152608401610522565b6108023385858403610e1b565b5060019392505050565b6000610476338484610f3f565b834211156108695760405162461bcd60e51b815260206004820152601d60248201527f4552433230566f7465733a207369676e617475726520657870697265640000006044820152606401610522565b604080517fe48329057bfd03d55e49b547132e39cffd9c1820ad7b9d4c5307691425d15adf60208201526001600160a01b0388169181019190915260608101869052608081018590526000906108e3906108db9060a001604051602081830303815290604052805190602001206113d3565b858585611421565b90506108ee81611449565b861461093c5760405162461bcd60e51b815260206004820152601960248201527f4552433230566f7465733a20696e76616c6964206e6f6e6365000000000000006044820152606401610522565b6109468188611342565b50505050505050565b8342111561099f5760405162461bcd60e51b815260206004820152601d60248201527f45524332305065726d69743a206578706972656420646561646c696e650000006044820152606401610522565b60007f00000000000000000000000000000000000000000000000000000000000000008888886109ce8c611449565b6040805160208101969096526001600160a01b0394851690860152929091166060840152608083015260a082015260c0810186905260e0016040516020818303038152906040528051906020012090506000610a29826113d3565b90506000610a3982878787611421565b9050896001600160a01b0316816001600160a01b031614610a9c5760405162461bcd60e51b815260206004820152601e60248201527f45524332305065726d69743a20696e76616c6964207369676e617475726500006044820152606401610522565b610aa78a8a8a610e1b565b50505050505050505050565b60408051808201909152600080825260208201526001600160a01b0383166000908152600760205260409020805463ffffffff8416908110610b0557634e487b7160e01b600052603260045260246000fd5b60009182526020918290206040805180820190915291015463ffffffff8116825264010000000090046001600160e01b0316918101919091529392505050565b610b4f8282610be2565b6002546001600160e01b031015610bce5760405162461bcd60e51b815260206004820152603060248201527f4552433230566f7465733a20746f74616c20737570706c79207269736b73206f60448201527f766572666c6f77696e6720766f746573000000000000000000000000000000006064820152608401610522565b610bdc6008610ccd83611471565b50505050565b6001600160a01b038216610c385760405162461bcd60e51b815260206004820152601f60248201527f45524332303a206d696e7420746f20746865207a65726f2061646472657373006044820152606401610522565b8060026000828254610c4a9190611cab565b90915550506001600160a01b03821660009081526020819052604081208054839290610c77908490611cab565b90915550506040518181526001600160a01b038316906000907fddf252ad1be2c89b69c2b068fc378daa952ba7f163c4a11628f55a4df523b3ef9060200160405180910390a3610cc960008383611614565b5050565b60006106018284611cab565b60006001600160e01b03821115610d585760405162461bcd60e51b815260206004820152602760248201527f53616665436173743a2076616c756520646f65736e27742066697420696e203260448201527f32342062697473000000000000000000000000000000000000000000000000006064820152608401610522565b5090565b600063ffffffff821115610d585760405162461bcd60e51b815260206004820152602660248201527f53616665436173743a2076616c756520646f65736e27742066697420696e203360448201527f32206269747300000000000000000000000000000000000000000000000000006064820152608401610522565b6001600160a01b03838116600090815260066020526040808220548584168352912054610e0a9291821691168361161f565b505050565b60006106018284611ce3565b6001600160a01b038316610e7d5760405162461bcd60e51b8152602060048201526024808201527f45524332303a20617070726f76652066726f6d20746865207a65726f206164646044820152637265737360e01b6064820152608401610522565b6001600160a01b038216610ede5760405162461bcd60e51b815260206004820152602260248201527f45524332303a20617070726f766520746f20746865207a65726f206164647265604482015261737360f01b6064820152608401610522565b6001600160a01b0383811660008181526001602090815260408083209487168084529482529182902085905590518481527f8c5be1e5ebec7d5bd14f71427d1e84f3dd0314c0f7b2291e5b200ac8c7c3b925910160405180910390a3505050565b6001600160a01b038316610fbb5760405162461bcd60e51b815260206004820152602560248201527f45524332303a207472616e736665722066726f6d20746865207a65726f20616460448201527f64726573730000000000000000000000000000000000000000000000000000006064820152608401610522565b6001600160a01b03821661101d5760405162461bcd60e51b815260206004820152602360248201527f45524332303a207472616e7366657220746f20746865207a65726f206164647260448201526265737360e81b6064820152608401610522565b6001600160a01b038316600090815260208190526040902054818110156110ac5760405162461bcd60e51b815260206004820152602660248201527f45524332303a207472616e7366657220616d6f756e742065786365656473206260448201527f616c616e636500000000000000000000000000000000000000000000000000006064820152608401610522565b6001600160a01b038085166000908152602081905260408082208585039055918516815290812080548492906110e3908490611cab565b92505081905550826001600160a01b0316846001600160a01b03167fddf252ad1be2c89b69c2b068fc378daa952ba7f163c4a11628f55a4df523b3ef8460405161112f91815260200190565b60405180910390a3610bdc848484611614565b6000306001600160a01b037f00000000000000000000000000000000000000000000000000000000000000001614801561119b57507f000000000000000000000000000000000000000000000000000000000000000046145b156111c557507f000000000000000000000000000000000000000000000000000000000000000090565b50604080517f00000000000000000000000000000000000000000000000000000000000000006020808301919091527f0000000000000000000000000000000000000000000000000000000000000000828401527f000000000000000000000000000000000000000000000000000000000000000060608301524660808301523060a0808401919091528351808403909101815260c0909201909252805191012090565b8154600090815b818110156112db576000611284828461175c565b9050848682815481106112a757634e487b7160e01b600052603260045260246000fd5b60009182526020909120015463ffffffff1611156112c7578092506112d5565b6112d2816001611cab565b91505b50611270565b811561132d57846112ed600184611ce3565b8154811061130b57634e487b7160e01b600052603260045260246000fd5b60009182526020909120015464010000000090046001600160e01b0316611330565b60005b6001600160e01b031695945050505050565b6001600160a01b038281166000818152600660208181526040808420805485845282862054949093528787167fffffffffffffffffffffffff00000000000000000000000000000000000000008416811790915590519190951694919391928592917f3134e8a2e6d97e929a7e54011ea5485d7d196dd5f0ba4d4ef95803e8e3fc257f9190a4610bdc82848361161f565b60006106376113e0611142565b8360405161190160f01b6020820152602281018390526042810182905260009060620160405160208183030381529060405280519060200120905092915050565b600080600061143287878787611777565b9150915061143f81611864565b5095945050505050565b6001600160a01b03811660009081526005602052604090208054600181018255905b50919050565b8254600090819080156114ca578561148a600183611ce3565b815481106114a857634e487b7160e01b600052603260045260246000fd5b60009182526020909120015464010000000090046001600160e01b03166114cd565b60005b6001600160e01b031692506114e683858763ffffffff16565b915060008111801561153257504386611500600184611ce3565b8154811061151e57634e487b7160e01b600052603260045260246000fd5b60009182526020909120015463ffffffff16145b156115a05761154082610cd9565b8661154c600184611ce3565b8154811061156a57634e487b7160e01b600052603260045260246000fd5b9060005260206000200160000160046101000a8154816001600160e01b0302191690836001600160e01b0316021790555061160b565b8560405180604001604052806115b543610d5c565b63ffffffff1681526020016115c985610cd9565b6001600160e01b0390811690915282546001810184556000938452602093849020835194909301519091166401000000000263ffffffff909316929092179101555b50935093915050565b610e0a838383610dd8565b816001600160a01b0316836001600160a01b0316141580156116415750600081115b15610e0a576001600160a01b038316156116cf576001600160a01b0383166000908152600760205260408120819061167c90610e0f85611471565b91509150846001600160a01b03167fdec2bacdd2f05b59de34da9b523dff8be42e5e38e818c82fdb0bae774387a72483836040516116c4929190918252602082015260400190565b60405180910390a250505b6001600160a01b03821615610e0a576001600160a01b0382166000908152600760205260408120819061170590610ccd85611471565b91509150836001600160a01b03167fdec2bacdd2f05b59de34da9b523dff8be42e5e38e818c82fdb0bae774387a724838360405161174d929190918252602082015260400190565b60405180910390a25050505050565b600061176b6002848418611cc3565b61060190848416611cab565b6000807f7fffffffffffffffffffffffffffffff5d576e7357a4501ddfe92f46681b20a08311156117ae575060009050600361185b565b8460ff16601b141580156117c657508460ff16601c14155b156117d7575060009050600461185b565b6040805160008082526020820180845289905260ff881692820192909252606081018690526080810185905260019060a0016020604051602081039080840390855afa15801561182b573d6000803e3d6000fd5b5050604051601f1901519150506001600160a01b0381166118545760006001925092505061185b565b9150600090505b94509492505050565b600081600481111561188657634e487b7160e01b600052602160045260246000fd5b141561188f5750565b60018160048111156118b157634e487b7160e01b600052602160045260246000fd5b14156118ff5760405162461bcd60e51b815260206004820152601860248201527f45434453413a20696e76616c6964207369676e617475726500000000000000006044820152606401610522565b600281600481111561192157634e487b7160e01b600052602160045260246000fd5b141561196f5760405162461bcd60e51b815260206004820152601f60248201527f45434453413a20696e76616c6964207369676e6174757265206c656e677468006044820152606401610522565b600381600481111561199157634e487b7160e01b600052602160045260246000fd5b14156119ea5760405162461bcd60e51b815260206004820152602260248201527f45434453413a20696e76616c6964207369676e6174757265202773272076616c604482015261756560f01b6064820152608401610522565b6004816004811115611a0c57634e487b7160e01b600052602160045260246000fd5b14156106125760405162461bcd60e51b815260206004820152602260248201527f45434453413a20696e76616c6964207369676e6174757265202776272076616c604482015261756560f01b6064820152608401610522565b80356001600160a01b0381168114611a7c57600080fd5b919050565b803560ff81168114611a7c57600080fd5b600060208284031215611aa3578081fd5b61060182611a65565b60008060408385031215611abe578081fd5b611ac783611a65565b9150611ad560208401611a65565b90509250929050565b600080600060608486031215611af2578081fd5b611afb84611a65565b9250611b0960208501611a65565b9150604084013590509250925092565b600080600080600080600060e0888a031215611b33578283fd5b611b3c88611a65565b9650611b4a60208901611a65565b95506040880135945060608801359350611b6660808901611a81565b925060a0880135915060c0880135905092959891949750929550565b60008060408385031215611b94578182fd5b611b9d83611a65565b946020939093013593505050565b60008060008060008060c08789031215611bc3578182fd5b611bcc87611a65565b95506020870135945060408701359350611be860608801611a81565b92506080870135915060a087013590509295509295509295565b60008060408385031215611c14578182fd5b611c1d83611a65565b9150602083013563ffffffff81168114611c35578182fd5b809150509250929050565b600060208284031215611c51578081fd5b5035919050565b6000602080835283518082850152825b81811015611c8457858101830151858201604001528201611c68565b81811115611c955783604083870101525b50601f01601f1916929092016040019392505050565b60008219821115611cbe57611cbe611d2f565b500190565b600082611cde57634e487b7160e01b81526012600452602481fd5b500490565b600082821015611cf557611cf5611d2f565b500390565b600181811c90821680611d0e57607f821691505b6020821081141561146b57634e487b7160e01b600052602260045260246000fd5b634e487b7160e01b600052601160045260246000fdfea164736f6c6343000804000adec2bacdd2f05b59de34da9b523dff8be42e5e38e818c82fdb0bae774387a724",
  "linkReferences": {},
  "deployedLinkReferences": {}
}