{
  "_format": "hh-sol-artifact-1",
  "contractName": "DevoGovernor",
  "sourceName": "contracts/DevoGovernor.sol",
  "abi": [
    {
      "inputs": [
        {
          "internalType": "contract ERC20Votes",
          "name": "_token",
          "type": "address"
        },
        {
          "internalType": "contract TimelockController",
          "name": "_timelock",
          "type": "address"
        }
      ],
      "stateMutability": "nonpayable",
      "type": "constructor"
    },
    {
      "anonymous": false,
      "inputs": [
        {
          "indexed": false,
          "internalType": "uint256",
          "name": "proposalId",
          "type": "uint256"
        }
      ],
      "name": "ProposalCanceled",
      "type": "event"
    },
    {
      "anonymous": false,
      "inputs": [
        {
          "indexed": false,
          "internalType": "uint256",
          "name": "proposalId",
          "type": "uint256"
        },
        {
          "indexed": false,
          "internalType": "address",
          "name": "proposer",
          "type": "address"
        },
        {
          "indexed": false,
          "internalType": "address[]",
          "name": "targets",
          "type": "address[]"
        },
        {
          "indexed": false,
          "internalType": "uint256[]",
          "name": "values",
          "type": "uint256[]"
        },
        {
          "indexed": false,
          "internalType": "string[]",
          "name": "signatures",
          "type": "string[]"
        },
        {
          "indexed": false,
          "internalType": "bytes[]",
          "name": "calldatas",
          "type": "bytes[]"
        },
        {
          "indexed": false,
          "internalType": "uint256",
          "name": "startBlock",
          "type": "uint256"
        },
        {
          "indexed": false,
          "internalType": "uint256",
          "name": "endBlock",
          "type": "uint256"
        },
        {
          "indexed": false,
          "internalType": "string",
          "name": "description",
          "type": "string"
        }
      ],
      "name": "ProposalCreated",
      "type": "event"
    },
    {
      "anonymous": false,
      "inputs": [
        {
          "indexed": false,
          "internalType": "uint256",
          "name": "proposalId",
          "type": "uint256"
        }
      ],
      "name": "ProposalExecuted",
      "type": "event"
    },
    {
      "anonymous": false,
      "inputs": [
        {
          "indexed": false,
          "internalType": "uint256",
          "name": "proposalId",
          "type": "uint256"
        },
        {
          "indexed": false,
          "internalType": "uint256",
          "name": "eta",
          "type": "uint256"
        }
      ],
      "name": "ProposalQueued",
      "type": "event"
    },
    {
      "anonymous": false,
      "inputs": [
        {
          "indexed": false,
          "internalType": "uint256",
          "name": "oldQuorumNumerator",
          "type": "uint256"
        },
        {
          "indexed": false,
          "internalType": "uint256",
          "name": "newQuorumNumerator",
          "type": "uint256"
        }
      ],
      "name": "QuorumNumeratorUpdated",
      "type": "event"
    },
    {
      "anonymous": false,
      "inputs": [
        {
          "indexed": false,
          "internalType": "address",
          "name": "oldTimelock",
          "type": "address"
        },
        {
          "indexed": false,
          "internalType": "address",
          "name": "newTimelock",
          "type": "address"
        }
      ],
      "name": "TimelockChange",
      "type": "event"
    },
    {
      "anonymous": false,
      "inputs": [
        {
          "indexed": true,
          "internalType": "address",
          "name": "voter",
          "type": "address"
        },
        {
          "indexed": false,
          "internalType": "uint256",
          "name": "proposalId",
          "type": "uint256"
        },
        {
          "indexed": false,
          "internalType": "uint8",
          "name": "support",
          "type": "uint8"
        },
        {
          "indexed": false,
          "internalType": "uint256",
          "name": "weight",
          "type": "uint256"
        },
        {
          "indexed": false,
          "internalType": "string",
          "name": "reason",
          "type": "string"
        }
      ],
      "name": "VoteCast",
      "type": "event"
    },
    {
      "inputs": [],
      "name": "BALLOT_TYPEHASH",
      "outputs": [
        {
          "internalType": "bytes32",
          "name": "",
          "type": "bytes32"
        }
      ],
      "stateMutability": "view",
      "type": "function"
    },
    {
      "inputs": [],
      "name": "COUNTING_MODE",
      "outputs": [
        {
          "internalType": "string",
          "name": "",
          "type": "string"
        }
      ],
      "stateMutability": "pure",
      "type": "function"
    },
    {
      "inputs": [
        {
          "internalType": "uint256",
          "name": "proposalId",
          "type": "uint256"
        },
        {
          "internalType": "uint8",
          "name": "support",
          "type": "uint8"
        }
      ],
      "name": "castVote",
      "outputs": [
        {
          "internalType": "uint256",
          "name": "",
          "type": "uint256"
        }
      ],
      "stateMutability": "nonpayable",
      "type": "function"
    },
    {
      "inputs": [
        {
          "internalType": "uint256",
          "name": "proposalId",
          "type": "uint256"
        },
        {
          "internalType": "uint8",
          "name": "support",
          "type": "uint8"
        },
        {
          "internalType": "uint8",
          "name": "v",
          "type": "uint8"
        },
        {
          "internalType": "bytes32",
          "name": "r",
          "type": "bytes32"
        },
        {
          "internalType": "bytes32",
          "name": "s",
          "type": "bytes32"
        }
      ],
      "name": "castVoteBySig",
      "outputs": [
        {
          "internalType": "uint256",
          "name": "",
          "type": "uint256"
        }
      ],
      "stateMutability": "nonpayable",
      "type": "function"
    },
    {
      "inputs": [
        {
          "internalType": "uint256",
          "name": "proposalId",
          "type": "uint256"
        },
        {
          "internalType": "uint8",
          "name": "support",
          "type": "uint8"
        },
        {
          "internalType": "string",
          "name": "reason",
          "type": "string"
        }
      ],
      "name": "castVoteWithReason",
      "outputs": [
        {
          "internalType": "uint256",
          "name": "",
          "type": "uint256"
        }
      ],
      "stateMutability": "nonpayable",
      "type": "function"
    },
    {
      "inputs": [
        {
          "internalType": "address[]",
          "name": "targets",
          "type": "address[]"
        },
        {
          "internalType": "uint256[]",
          "name": "values",
          "type": "uint256[]"
        },
        {
          "internalType": "bytes[]",
          "name": "calldatas",
          "type": "bytes[]"
        },
        {
          "internalType": "bytes32",
          "name": "descriptionHash",
          "type": "bytes32"
        }
      ],
      "name": "execute",
      "outputs": [
        {
          "internalType": "uint256",
          "name": "",
          "type": "uint256"
        }
      ],
      "stateMutability": "payable",
      "type": "function"
    },
    {
      "inputs": [
        {
          "internalType": "address",
          "name": "account",
          "type": "address"
        },
        {
          "internalType": "uint256",
          "name": "blockNumber",
          "type": "uint256"
        }
      ],
      "name": "getVotes",
      "outputs": [
        {
          "internalType": "uint256",
          "name": "",
          "type": "uint256"
        }
      ],
      "stateMutability": "view",
      "type": "function"
    },
    {
      "inputs": [
        {
          "internalType": "uint256",
          "name": "proposalId",
          "type": "uint256"
        },
        {
          "internalType": "address",
          "name": "account",
          "type": "address"
        }
      ],
      "name": "hasVoted",
      "outputs": [
        {
          "internalType": "bool",
          "name": "",
          "type": "bool"
        }
      ],
      "stateMutability": "view",
      "type": "function"
    },
    {
      "inputs": [
        {
          "internalType": "address[]",
          "name": "targets",
          "type": "address[]"
        },
        {
          "internalType": "uint256[]",
          "name": "values",
          "type": "uint256[]"
        },
        {
          "internalType": "bytes[]",
          "name": "calldatas",
          "type": "bytes[]"
        },
        {
          "internalType": "bytes32",
          "name": "descriptionHash",
          "type": "bytes32"
        }
      ],
      "name": "hashProposal",
      "outputs": [
        {
          "internalType": "uint256",
          "name": "",
          "type": "uint256"
        }
      ],
      "stateMutability": "pure",
      "type": "function"
    },
    {
      "inputs": [],
      "name": "name",
      "outputs": [
        {
          "internalType": "string",
          "name": "",
          "type": "string"
        }
      ],
      "stateMutability": "view",
      "type": "function"
    },
    {
      "inputs": [
        {
          "internalType": "uint256",
          "name": "proposalId",
          "type": "uint256"
        }
      ],
      "name": "proposalDeadline",
      "outputs": [
        {
          "internalType": "uint256",
          "name": "",
          "type": "uint256"
        }
      ],
      "stateMutability": "view",
      "type": "function"
    },
    {
      "inputs": [
        {
          "internalType": "uint256",
          "name": "proposalId",
          "type": "uint256"
        }
      ],
      "name": "proposalEta",
      "outputs": [
        {
          "internalType": "uint256",
          "name": "",
          "type": "uint256"
        }
      ],
      "stateMutability": "view",
      "type": "function"
    },
    {
      "inputs": [
        {
          "internalType": "uint256",
          "name": "proposalId",
          "type": "uint256"
        }
      ],
      "name": "proposalSnapshot",
      "outputs": [
        {
          "internalType": "uint256",
          "name": "",
          "type": "uint256"
        }
      ],
      "stateMutability": "view",
      "type": "function"
    },
    {
      "inputs": [],
      "name": "proposalThreshold",
      "outputs": [
        {
          "internalType": "uint256",
          "name": "",
          "type": "uint256"
        }
      ],
      "stateMutability": "view",
      "type": "function"
    },
    {
      "inputs": [
        {
          "internalType": "uint256",
          "name": "proposalId",
          "type": "uint256"
        }
      ],
      "name": "proposalVotes",
      "outputs": [
        {
          "internalType": "uint256",
          "name": "againstVotes",
          "type": "uint256"
        },
        {
          "internalType": "uint256",
          "name": "forVotes",
          "type": "uint256"
        },
        {
          "internalType": "uint256",
          "name": "abstainVotes",
          "type": "uint256"
        }
      ],
      "stateMutability": "view",
      "type": "function"
    },
    {
      "inputs": [
        {
          "internalType": "address[]",
          "name": "targets",
          "type": "address[]"
        },
        {
          "internalType": "uint256[]",
          "name": "values",
          "type": "uint256[]"
        },
        {
          "internalType": "bytes[]",
          "name": "calldatas",
          "type": "bytes[]"
        },
        {
          "internalType": "string",
          "name": "description",
          "type": "string"
        }
      ],
      "name": "propose",
      "outputs": [
        {
          "internalType": "uint256",
          "name": "",
          "type": "uint256"
        }
      ],
      "stateMutability": "nonpayable",
      "type": "function"
    },
    {
      "inputs": [
        {
          "internalType": "address[]",
          "name": "targets",
          "type": "address[]"
        },
        {
          "internalType": "uint256[]",
          "name": "values",
          "type": "uint256[]"
        },
        {
          "internalType": "bytes[]",
          "name": "calldatas",
          "type": "bytes[]"
        },
        {
          "internalType": "bytes32",
          "name": "descriptionHash",
          "type": "bytes32"
        }
      ],
      "name": "queue",
      "outputs": [
        {
          "internalType": "uint256",
          "name": "",
          "type": "uint256"
        }
      ],
      "stateMutability": "nonpayable",
      "type": "function"
    },
    {
      "inputs": [
        {
          "internalType": "uint256",
          "name": "blockNumber",
          "type": "uint256"
        }
      ],
      "name": "quorum",
      "outputs": [
        {
          "internalType": "uint256",
          "name": "",
          "type": "uint256"
        }
      ],
      "stateMutability": "view",
      "type": "function"
    },
    {
      "inputs": [],
      "name": "quorumDenominator",
      "outputs": [
        {
          "internalType": "uint256",
          "name": "",
          "type": "uint256"
        }
      ],
      "stateMutability": "view",
      "type": "function"
    },
    {
      "inputs": [],
      "name": "quorumNumerator",
      "outputs": [
        {
          "internalType": "uint256",
          "name": "",
          "type": "uint256"
        }
      ],
      "stateMutability": "view",
      "type": "function"
    },
    {
      "inputs": [
        {
          "internalType": "uint256",
          "name": "proposalId",
          "type": "uint256"
        }
      ],
      "name": "state",
      "outputs": [
        {
          "internalType": "enum IGovernor.ProposalState",
          "name": "",
          "type": "uint8"
        }
      ],
      "stateMutability": "view",
      "type": "function"
    },
    {
      "inputs": [
        {
          "internalType": "bytes4",
          "name": "interfaceId",
          "type": "bytes4"
        }
      ],
      "name": "supportsInterface",
      "outputs": [
        {
          "internalType": "bool",
          "name": "",
          "type": "bool"
        }
      ],
      "stateMutability": "view",
      "type": "function"
    },
    {
      "inputs": [],
      "name": "timelock",
      "outputs": [
        {
          "internalType": "address",
          "name": "",
          "type": "address"
        }
      ],
      "stateMutability": "view",
      "type": "function"
    },
    {
      "inputs": [],
      "name": "token",
      "outputs": [
        {
          "internalType": "contract ERC20Votes",
          "name": "",
          "type": "address"
        }
      ],
      "stateMutability": "view",
      "type": "function"
    },
    {
      "inputs": [
        {
          "internalType": "uint256",
          "name": "newQuorumNumerator",
          "type": "uint256"
        }
      ],
      "name": "updateQuorumNumerator",
      "outputs": [],
      "stateMutability": "nonpayable",
      "type": "function"
    },
    {
      "inputs": [
        {
          "internalType": "contract TimelockController",
          "name": "newTimelock",
          "type": "address"
        }
      ],
      "name": "updateTimelock",
      "outputs": [],
      "stateMutability": "nonpayable",
      "type": "function"
    },
    {
      "inputs": [],
      "name": "version",
      "outputs": [
        {
          "internalType": "string",
          "name": "",
          "type": "string"
        }
      ],
      "stateMutability": "view",
      "type": "function"
    },
    {
      "inputs": [],
      "name": "votingDelay",
      "outputs": [
        {
          "internalType": "uint256",
          "name": "",
          "type": "uint256"
        }
      ],
      "stateMutability": "pure",
      "type": "function"
    },
    {
      "inputs": [],
      "name": "votingPeriod",
      "outputs": [
        {
          "internalType": "uint256",
          "name": "",
          "type": "uint256"
        }
      ],
      "stateMutability": "pure",
      "type": "function"
    },
    {
      "stateMutability": "payable",
      "type": "receive"
    }
  ],
  "bytecode": "0x6101606040523480156200001257600080fd5b5060405162002d6e38038062002d6e833981016040819052620000359162000342565b806004836040518060400160405280600c81526020016b2232bb37a3b7bb32b93737b960a11b815250806200006f6200014b60201b60201c565b815160208084019190912082518383012060e08290526101008190524660a0818152604080517f8b73c3c69bb8fe3d512ecc4cf759cc79239f7b179b0ffacaa9a75d522b39400f81880181905281830187905260608201869052608082019490945230818401528151808203909301835260c00190528051940193909320919290916080523060601b60c05261012052505082516200011892506000915060208401906200029c565b505060601b6001600160601b03191661014052620001368162000166565b50620001428162000233565b505050620003d6565b6040805180820190915260018152603160f81b602082015290565b6064811115620001ee5760405162461bcd60e51b815260206004820152604360248201527f476f7665726e6f72566f74657351756f72756d4672616374696f6e3a2071756f60448201527f72756d4e756d657261746f72206f7665722071756f72756d44656e6f6d696e616064820152623a37b960e91b608482015260a40160405180910390fd5b600380549082905560408051828152602081018490527f0553476bf02ef2726e8ce5ced78d63e26e602e4a2257b1f559418e24b4633997910160405180910390a15050565b600454604080516001600160a01b03928316815291831660208301527f08f74ea46ef7894f65eabfb5e6e695de773a000b47c529ab559178069b226401910160405180910390a1600480546001600160a01b0319166001600160a01b0392909216919091179055565b828054620002aa9062000380565b90600052602060002090601f016020900481019282620002ce576000855562000319565b82601f10620002e957805160ff191683800117855562000319565b8280016001018555821562000319579182015b8281111562000319578251825591602001919060010190620002fc565b50620003279291506200032b565b5090565b5b808211156200032757600081556001016200032c565b6000806040838503121562000355578182fd5b82516200036281620003bd565b60208401519092506200037581620003bd565b809150509250929050565b600181811c908216806200039557607f821691505b60208210811415620003b757634e487b7160e01b600052602260045260246000fd5b50919050565b6001600160a01b0381168114620003d357600080fd5b50565b60805160a05160c05160601c60e05161010051610120516101405160601c61292962000445600039600081816106210152818161157f0152611618015260006117e00152600061182f0152600061180a015260006117630152600061178d015260006117b701526129296000f3fe6080604052600436106101c65760003560e01c80637b3c71d3116100f7578063c01f9e3711610095578063deaaa7cc11610064578063deaaa7cc1461059b578063eb9019d4146105cf578063f8ce560a146105ef578063fc0c546a1461060f57600080fd5b8063c01f9e37146104e3578063c59057e414610503578063d33219b414610523578063dd4e2ba51461055557600080fd5b8063a7713a70116100d1578063a7713a701461047a578063a890c9101461048f578063ab58fb8e146104af578063b58131b0146104cf57600080fd5b80637b3c71d3146104265780637d5e81e21461044657806397c3d3341461046657600080fd5b80633932abb111610164578063438596321161013e5780634385963214610338578063544ffc9c1461038257806354fd4d50146103dc578063567813881461040657600080fd5b80633932abb1146102d75780633bccf4fd146102eb5780633e4f49e61461030b57600080fd5b806306fdde03116101a057806306fdde0314610262578063160cbed7146102845780632656227d146102a45780632d63f693146102b757600080fd5b806301ffc9a7146101ee57806302a251a31461022357806306f3f9e61461024257600080fd5b366101e957306101d4610643565b6001600160a01b0316146101e757600080fd5b005b600080fd5b3480156101fa57600080fd5b5061020e6102093660046122dc565b61065c565b60405190151581526020015b60405180910390f35b34801561022f57600080fd5b5061b2fa5b60405190815260200161021a565b34801561024e57600080fd5b506101e761025d366004612320565b61066d565b34801561026e57600080fd5b506102776106e6565b60405161021a919061268b565b34801561029057600080fd5b5061023461029f36600461215d565b610778565b6102346102b236600461215d565b6109e8565b3480156102c357600080fd5b506102346102d2366004612320565b610b11565b3480156102e357600080fd5b506001610234565b3480156102f757600080fd5b50610234610306366004612414565b610b4a565b34801561031757600080fd5b5061032b610326366004612320565b610bde565b60405161021a9190612663565b34801561034457600080fd5b5061020e610353366004612338565b60008281526002602090815260408083206001600160a01b038516845260030190915290205460ff1692915050565b34801561038e57600080fd5b506103c161039d366004612320565b60008181526002602081905260409091208054600182015491909201549193909250565b6040805193845260208401929092529082015260600161021a565b3480156103e857600080fd5b506040805180820190915260018152603160f81b6020820152610277565b34801561041257600080fd5b50610234610421366004612367565b610be9565b34801561043257600080fd5b50610234610441366004612392565b610c12565b34801561045257600080fd5b506102346104613660046121e9565b610c64565b34801561047257600080fd5b506064610234565b34801561048657600080fd5b50600354610234565b34801561049b57600080fd5b506101e76104aa366004612304565b610c7b565b3480156104bb57600080fd5b506102346104ca366004612320565b610cec565b3480156104db57600080fd5b506000610234565b3480156104ef57600080fd5b506102346104fe366004612320565b610d90565b34801561050f57600080fd5b5061023461051e36600461215d565b610dc0565b34801561052f57600080fd5b506004546001600160a01b03165b6040516001600160a01b03909116815260200161021a565b34801561056157600080fd5b506040805180820190915260208082527f737570706f72743d627261766f2671756f72756d3d666f722c6162737461696e90820152610277565b3480156105a757600080fd5b506102347f150214d74d59b7d1e90c73fc22ef3d991dd0a76b046543d4d80ab92d2a50328f81565b3480156105db57600080fd5b506102346105ea366004612132565b610dfa565b3480156105fb57600080fd5b5061023461060a366004612320565b610e06565b34801561061b57600080fd5b5061053d7f000000000000000000000000000000000000000000000000000000000000000081565b60006106576004546001600160a01b031690565b905090565b600061066782610e11565b92915050565b610675610643565b6001600160a01b0316336001600160a01b0316146106da5760405162461bcd60e51b815260206004820152601860248201527f476f7665726e6f723a206f6e6c79476f7665726e616e6365000000000000000060448201526064015b60405180910390fd5b6106e381610e36565b50565b6060600080546106f5906128a6565b80601f0160208091040260200160405190810160405280929190818152602001828054610721906128a6565b801561076e5780601f106107435761010080835404028352916020019161076e565b820191906000526020600020905b81548152906001019060200180831161075157829003601f168201915b5050505050905090565b60008061078786868686610dc0565b9050600461079482610bde565b60078111156107b357634e487b7160e01b600052602160045260246000fd5b1461080a5760405162461bcd60e51b815260206004820152602160248201527f476f7665726e6f723a2070726f706f73616c206e6f74207375636365737366756044820152601b60fa1b60648201526084016106d1565b6000600460009054906101000a90046001600160a01b03166001600160a01b031663f27a0c926040518163ffffffff1660e01b815260040160206040518083038186803b15801561085a57600080fd5b505afa15801561086e573d6000803e3d6000fd5b505050506040513d601f19601f8201168201806040525081019061089291906122c4565b6004805460405163b1c5f42760e01b81529293506001600160a01b03169163b1c5f427916108cb918b918b918b916000918c91016125bd565b60206040518083038186803b1580156108e357600080fd5b505afa1580156108f7573d6000803e3d6000fd5b505050506040513d601f19601f8201168201806040525081019061091b91906122c4565b600083815260056020526040808220929092556004805492516308f2a0bb60e41b81526001600160a01b0390931692638f2a0bb092610966928c928c928c9290918c918a910161260b565b600060405180830381600087803b15801561098057600080fd5b505af1158015610994573d6000803e3d6000fd5b505050507f9a2e42fd6722813d69113e7d0079d3d940171428df7373df9c7f7617cfda28928282426109c6919061280c565b6040805192835260208301919091520160405180910390a15095945050505050565b6000806109f786868686610dc0565b90506000610a0482610bde565b90506004816007811115610a2857634e487b7160e01b600052602160045260246000fd5b1480610a5357506005816007811115610a5157634e487b7160e01b600052602160045260246000fd5b145b610aa95760405162461bcd60e51b815260206004820152602160248201527f476f7665726e6f723a2070726f706f73616c206e6f74207375636365737366756044820152601b60fa1b60648201526084016106d1565b600082815260016020818152604092839020600201805460ff191690921790915590518381527f712ae1383f79ac853f8d882153778e0260ef8f03b504e2866e0593e04d2b291f910160405180910390a1610b078288888888610efe565b5095945050505050565b600081815260016020908152604080832081519283019091525467ffffffffffffffff16908190525b67ffffffffffffffff1692915050565b604080517f150214d74d59b7d1e90c73fc22ef3d991dd0a76b046543d4d80ab92d2a50328f602082015290810186905260ff851660608201526000908190610bb690610bae9060800160405160208183030381529060405280519060200120610f12565b868686610f60565b9050610bd387828860405180602001604052806000815250610f7e565b979650505050505050565b600061066782611098565b600080339050610c0a84828560405180602001604052806000815250610f7e565b949350505050565b600080339050610c5a86828787878080601f016020809104026020016040519081016040528093929190818152602001838380828437600092019190915250610f7e92505050565b9695505050505050565b6000610c7285858585611181565b95945050505050565b610c83610643565b6001600160a01b0316336001600160a01b031614610ce35760405162461bcd60e51b815260206004820152601860248201527f476f7665726e6f723a206f6e6c79476f7665726e616e6365000000000000000060448201526064016106d1565b6106e3816114d5565b6004805460008381526005602052604080822054905163d45c443560e01b8152938401529182916001600160a01b03169063d45c44359060240160206040518083038186803b158015610d3e57600080fd5b505afa158015610d52573d6000803e3d6000fd5b505050506040513d601f19601f82011682018060405250810190610d7691906122c4565b905080600114610d865780610d89565b60005b9392505050565b600081815260016020818152604080842081519283019091529091015467ffffffffffffffff1690819052610b3a565b600084848484604051602001610dd99493929190612572565b60408051601f19818403018152919052805160209091012095945050505050565b6000610d898383611556565b6000610667826115fb565b60006001600160e01b03198216636e665ced60e01b14806106675750610667826116ae565b6064811115610eb95760405162461bcd60e51b815260206004820152604360248201527f476f7665726e6f72566f74657351756f72756d4672616374696f6e3a2071756f60448201527f72756d4e756d657261746f72206f7665722071756f72756d44656e6f6d696e616064820152623a37b960e91b608482015260a4016106d1565b600380549082905560408051828152602081018490527f0553476bf02ef2726e8ce5ced78d63e26e602e4a2257b1f559418e24b4633997910160405180910390a15050565b610f0b85858585856116e3565b5050505050565b6000610667610f1f611756565b8360405161190160f01b6020820152602281018390526042810182905260009060620160405160208183030381529060405280519060200120905092915050565b6000806000610f718787878761187d565b91509150610b078161196a565b6000848152600160208190526040822090610f9887610bde565b6007811115610fb757634e487b7160e01b600052602160045260246000fd5b146110105760405162461bcd60e51b815260206004820152602360248201527f476f7665726e6f723a20766f7465206e6f742063757272656e746c792061637460448201526269766560e81b60648201526084016106d1565b6040805160208101909152815467ffffffffffffffff1690819052600090611039908790610dfa565b905061104787878784611b6b565b856001600160a01b03167fb8e138887d0aa13bab447e82de9d5c1777041ecd21ca36ba824ff1e6c07ddda488878488604051611086949392919061278f565b60405180910390a29695505050505050565b6000806110a483611d08565b905060048160078111156110c857634e487b7160e01b600052602160045260246000fd5b146110d35792915050565b600083815260056020526040902054806110ee575092915050565b60048054604051632ab0f52960e01b81529182018390526001600160a01b031690632ab0f5299060240160206040518083038186803b15801561113057600080fd5b505afa158015611144573d6000803e3d6000fd5b505050506040513d601f19601f8201168201806040525081019061116891906122a4565b15611177575060079392505050565b5060059392505050565b600080611193336105ea60014361288f565b10156112135760405162461bcd60e51b815260206004820152604360248201527f476f7665726e6f72436f6d7061746962696c697479427261766f3a2070726f7060448201527f6f73657220766f7465732062656c6f772070726f706f73616c207468726573686064820152621bdb1960ea1b608482015260a4016106d1565b60006112288686868680519060200120610dc0565b905084518651146112855760405162461bcd60e51b815260206004820152602160248201527f476f7665726e6f723a20696e76616c69642070726f706f73616c206c656e67746044820152600d60fb1b60648201526084016106d1565b83518651146112e05760405162461bcd60e51b815260206004820152602160248201527f476f7665726e6f723a20696e76616c69642070726f706f73616c206c656e67746044820152600d60fb1b60648201526084016106d1565b60008651116113315760405162461bcd60e51b815260206004820152601860248201527f476f7665726e6f723a20656d7074792070726f706f73616c000000000000000060448201526064016106d1565b6000818152600160209081526040918290208251918201909252815467ffffffffffffffff1690819052156113b25760405162461bcd60e51b815260206004820152602160248201527f476f7665726e6f723a2070726f706f73616c20616c72656164792065786973746044820152607360f81b60648201526084016106d1565b60006113be6001611e6f565b6113c743611e6f565b6113d19190612824565b905060006113e061b2fa611e6f565b6113ea9083612824565b835467ffffffffffffffff191667ffffffffffffffff8416178455905060018301805467ffffffffffffffff191667ffffffffffffffff83161790557f7d84a6263ae0d98d3329bd7b46bb4e8d6f98cd35a7adb45c274c8b7fd5ebd5e084338b8b8d5167ffffffffffffffff81111561147357634e487b7160e01b600052604160045260246000fd5b6040519080825280602002602001820160405280156114a657816020015b60608152602001906001900390816114915790505b508c88888e6040516114c09998979695949392919061269e565b60405180910390a15091979650505050505050565b600454604080516001600160a01b03928316815291831660208301527f08f74ea46ef7894f65eabfb5e6e695de773a000b47c529ab559178069b226401910160405180910390a1600480547fffffffffffffffffffffffff0000000000000000000000000000000000000000166001600160a01b0392909216919091179055565b604051630748d63560e31b81526001600160a01b038381166004830152602482018390526000917f000000000000000000000000000000000000000000000000000000000000000090911690633a46b1a89060440160206040518083038186803b1580156115c357600080fd5b505afa1580156115d7573d6000803e3d6000fd5b505050506040513d601f19601f82011682018060405250810190610d8991906122c4565b60006064600354604051632394e7a360e21b8152600481018590527f00000000000000000000000000000000000000000000000000000000000000006001600160a01b031690638e539e8c9060240160206040518083038186803b15801561166257600080fd5b505afa158015611676573d6000803e3d6000fd5b505050506040513d601f19601f8201168201806040525081019061169a91906122c4565b6116a49190612870565b6106679190612850565b60006001600160e01b0319821663bf26d89760e01b148061066757506301ffc9a760e01b6001600160e01b0319831614610667565b6004805460405163e38335e560e01b81526001600160a01b039091169163e38335e591349161171d918991899189916000918a91016125bd565b6000604051808303818588803b15801561173657600080fd5b505af115801561174a573d6000803e3d6000fd5b50505050505050505050565b6000306001600160a01b037f0000000000000000000000000000000000000000000000000000000000000000161480156117af57507f000000000000000000000000000000000000000000000000000000000000000046145b156117d957507f000000000000000000000000000000000000000000000000000000000000000090565b50604080517f00000000000000000000000000000000000000000000000000000000000000006020808301919091527f0000000000000000000000000000000000000000000000000000000000000000828401527f000000000000000000000000000000000000000000000000000000000000000060608301524660808301523060a0808401919091528351808403909101815260c0909201909252805191012090565b6000807f7fffffffffffffffffffffffffffffff5d576e7357a4501ddfe92f46681b20a08311156118b45750600090506003611961565b8460ff16601b141580156118cc57508460ff16601c14155b156118dd5750600090506004611961565b6040805160008082526020820180845289905260ff881692820192909252606081018690526080810185905260019060a0016020604051602081039080840390855afa158015611931573d6000803e3d6000fd5b5050604051601f1901519150506001600160a01b03811661195a57600060019250925050611961565b9150600090505b94509492505050565b600081600481111561198c57634e487b7160e01b600052602160045260246000fd5b14156119955750565b60018160048111156119b757634e487b7160e01b600052602160045260246000fd5b1415611a055760405162461bcd60e51b815260206004820152601860248201527f45434453413a20696e76616c6964207369676e6174757265000000000000000060448201526064016106d1565b6002816004811115611a2757634e487b7160e01b600052602160045260246000fd5b1415611a755760405162461bcd60e51b815260206004820152601f60248201527f45434453413a20696e76616c6964207369676e6174757265206c656e6774680060448201526064016106d1565b6003816004811115611a9757634e487b7160e01b600052602160045260246000fd5b1415611af05760405162461bcd60e51b815260206004820152602260248201527f45434453413a20696e76616c6964207369676e6174757265202773272076616c604482015261756560f01b60648201526084016106d1565b6004816004811115611b1257634e487b7160e01b600052602160045260246000fd5b14156106e35760405162461bcd60e51b815260206004820152602260248201527f45434453413a20696e76616c6964207369676e6174757265202776272076616c604482015261756560f01b60648201526084016106d1565b60008481526002602090815260408083206001600160a01b0387168452600381019092529091205460ff1615611c095760405162461bcd60e51b815260206004820152602760248201527f476f7665726e6f72566f74696e6753696d706c653a20766f746520616c72656160448201527f647920636173740000000000000000000000000000000000000000000000000060648201526084016106d1565b6001600160a01b03841660009081526003820160205260408120805460ff1916600117905560ff168360ff161415611c5a5781816000016000828254611c4f919061280c565b90915550610f0b9050565b60ff831660011415611c7a5781816001016000828254611c4f919061280c565b60ff831660021415611c9a5781816002016000828254611c4f919061280c565b60405162461bcd60e51b815260206004820152603560248201527f476f7665726e6f72566f74696e6753696d706c653a20696e76616c696420766160448201527f6c756520666f7220656e756d20566f746554797065000000000000000000000060648201526084016106d1565b6000818152600160208181526040808420815160a081018352815467ffffffffffffffff90811660808301908152825283518086018552958301541685529283019390935260029092015460ff80821615801594840194909452610100909104161515606082015290611d7e5750600792915050565b806060015115611d915750600292915050565b805151439067ffffffffffffffff1610611dae5750600092915050565b43611dbb82602001515190565b67ffffffffffffffff1610611dd35750600192915050565b611de08160200151611ef3565b15611e2157611dee83611f24565b8015611e0d575060008381526002602052604090208054600190910154115b611e18576003610d89565b60049392505050565b60405162461bcd60e51b815260206004820152601d60248201527f476f7665726e6f723a20756e6b6e6f776e2070726f706f73616c20696400000060448201526064016106d1565b50919050565b600067ffffffffffffffff821115611eef5760405162461bcd60e51b815260206004820152602660248201527f53616665436173743a2076616c756520646f65736e27742066697420696e203660448201527f342062697473000000000000000000000000000000000000000000000000000060648201526084016106d1565b5090565b6000611f09825167ffffffffffffffff16151590565b8015610667575050514367ffffffffffffffff909116111590565b60008181526002602081905260408220908101546001820154611f47919061280c565b611f5361060a85610b11565b11159392505050565b600067ffffffffffffffff831115611f7657611f766128f1565b611f89601f8401601f19166020016127b7565b9050828152838383011115611f9d57600080fd5b828260208301376000602084830101529392505050565b600082601f830112611fc4578081fd5b81356020611fd9611fd4836127e8565b6127b7565b80838252828201915082860187848660051b8901011115611ff8578586fd5b855b8581101561201f57813561200d81612907565b84529284019290840190600101611ffa565b5090979650505050505050565b600082601f83011261203c578081fd5b8135602061204c611fd4836127e8565b80838252828201915082860187848660051b890101111561206b578586fd5b855b8581101561201f57813567ffffffffffffffff81111561208b578788fd5b8801603f81018a1361209b578788fd5b6120ac8a8783013560408401611f5c565b855250928401929084019060010161206d565b600082601f8301126120cf578081fd5b813560206120df611fd4836127e8565b80838252828201915082860187848660051b89010111156120fe578586fd5b855b8581101561201f57813584529284019290840190600101612100565b803560ff8116811461212d57600080fd5b919050565b60008060408385031215612144578182fd5b823561214f81612907565b946020939093013593505050565b60008060008060808587031215612172578182fd5b843567ffffffffffffffff80821115612189578384fd5b61219588838901611fb4565b955060208701359150808211156121aa578384fd5b6121b6888389016120bf565b945060408701359150808211156121cb578384fd5b506121d88782880161202c565b949793965093946060013593505050565b600080600080608085870312156121fe578384fd5b843567ffffffffffffffff80821115612215578586fd5b61222188838901611fb4565b95506020870135915080821115612236578485fd5b612242888389016120bf565b94506040870135915080821115612257578384fd5b6122638883890161202c565b93506060870135915080821115612278578283fd5b508501601f81018713612289578182fd5b61229887823560208401611f5c565b91505092959194509250565b6000602082840312156122b5578081fd5b81518015158114610d89578182fd5b6000602082840312156122d5578081fd5b5051919050565b6000602082840312156122ed578081fd5b81356001600160e01b031981168114610d89578182fd5b600060208284031215612315578081fd5b8135610d8981612907565b600060208284031215612331578081fd5b5035919050565b6000806040838503121561234a578182fd5b82359150602083013561235c81612907565b809150509250929050565b60008060408385031215612379578182fd5b823591506123896020840161211c565b90509250929050565b600080600080606085870312156123a7578182fd5b843593506123b76020860161211c565b9250604085013567ffffffffffffffff808211156123d3578384fd5b818701915087601f8301126123e6578384fd5b8135818111156123f4578485fd5b886020828501011115612405578485fd5b95989497505060200194505050565b600080600080600060a0868803121561242b578283fd5b8535945061243b6020870161211c565b93506124496040870161211c565b94979396509394606081013594506080013592915050565b6000815180845260208085019450808401835b838110156124995781516001600160a01b031687529582019590820190600101612474565b509495945050505050565b600081518084526020808501808196508360051b81019150828601855b858110156124eb5782840389526124d9848351612527565b988501989350908401906001016124c1565b5091979650505050505050565b6000815180845260208085019450808401835b838110156124995781518752958201959082019060010161250b565b60008151808452815b8181101561254c57602081850181015186830182015201612530565b8181111561255d5782602083870101525b50601f01601f19169290920160200192915050565b6080815260006125856080830187612461565b828103602084015261259781876124f8565b905082810360408401526125ab81866124a4565b91505082606083015295945050505050565b60a0815260006125d060a0830188612461565b82810360208401526125e281886124f8565b905082810360408401526125f681876124a4565b60608401959095525050608001529392505050565b60c08152600061261e60c0830189612461565b828103602084015261263081896124f8565b9050828103604084015261264481886124a4565b60608401969096525050608081019290925260a0909101529392505050565b602081016008831061268557634e487b7160e01b600052602160045260246000fd5b91905290565b602081526000610d896020830184612527565b60006101208b835260206001600160a01b038c16818501528160408501526126c88285018c612461565b915083820360608501526126dc828b6124f8565b915083820360808501528189518084528284019150828160051b850101838c01865b8381101561272c57601f1987840301855261271a838351612527565b948601949250908501906001016126fe565b505086810360a0880152612740818c6124a4565b94505050505061275c60c084018767ffffffffffffffff169052565b67ffffffffffffffff851660e084015282810361010084015261277f8185612527565b9c9b505050505050505050505050565b84815260ff84166020820152826040820152608060608201526000610c5a6080830184612527565b604051601f8201601f1916810167ffffffffffffffff811182821017156127e0576127e06128f1565b604052919050565b600067ffffffffffffffff821115612802576128026128f1565b5060051b60200190565b6000821982111561281f5761281f6128db565b500190565b600067ffffffffffffffff808316818516808303821115612847576128476128db565b01949350505050565b60008261286b57634e487b7160e01b81526012600452602481fd5b500490565b600081600019048311821515161561288a5761288a6128db565b500290565b6000828210156128a1576128a16128db565b500390565b600181811c908216806128ba57607f821691505b60208210811415611e6957634e487b7160e01b600052602260045260246000fd5b634e487b7160e01b600052601160045260246000fd5b634e487b7160e01b600052604160045260246000fd5b6001600160a01b03811681146106e357600080fdfea164736f6c6343000804000a",
  "linkReferences": {},
  "deployedLinkReferences": {}
}