{
  "_format": "hh-sol-artifact-1",
  "contractName": "DevoProject",
  "sourceName": "contracts/DevoProject.sol",
  "abi": [
    {
      "anonymous": false,
      "inputs": [
        {
          "indexed": true,
          "internalType": "address",
          "name": "_owner",
          "type": "address"
        },
        {
          "indexed": true,
          "internalType": "uint256",
          "name": "_id",
          "type": "uint256"
        }
      ],
      "name": "AddProject",
      "type": "event"
    },
    {
      "inputs": [
        {
          "internalType": "uint256",
          "name": "projectId",
          "type": "uint256"
        },
        {
          "internalType": "address",
          "name": "approver",
          "type": "address"
        }
      ],
      "name": "addApprover",
      "outputs": [],
      "stateMutability": "nonpayable",
      "type": "function"
    },
    {
      "inputs": [
        {
          "internalType": "string",
          "name": "name",
          "type": "string"
        },
        {
          "internalType": "string",
          "name": "logoURI",
          "type": "string"
        },
        {
          "internalType": "string",
          "name": "description",
          "type": "string"
        }
      ],
      "name": "createProject",
      "outputs": [],
      "stateMutability": "nonpayable",
      "type": "function"
    },
    {
      "inputs": [],
      "name": "getLatestIndex",
      "outputs": [
        {
          "internalType": "uint256",
          "name": "",
          "type": "uint256"
        }
      ],
      "stateMutability": "view",
      "type": "function"
    },
    {
      "inputs": [
        {
          "internalType": "uint256",
          "name": "projectId",
          "type": "uint256"
        }
      ],
      "name": "getProjectApprovers",
      "outputs": [
        {
          "internalType": "address[]",
          "name": "",
          "type": "address[]"
        }
      ],
      "stateMutability": "view",
      "type": "function"
    },
    {
      "inputs": [
        {
          "internalType": "uint256",
          "name": "projectId",
          "type": "uint256"
        }
      ],
      "name": "getProjectDescription",
      "outputs": [
        {
          "internalType": "string",
          "name": "",
          "type": "string"
        }
      ],
      "stateMutability": "view",
      "type": "function"
    },
    {
      "inputs": [
        {
          "internalType": "uint256",
          "name": "projectId",
          "type": "uint256"
        }
      ],
      "name": "getProjectLogoURI",
      "outputs": [
        {
          "internalType": "string",
          "name": "",
          "type": "string"
        }
      ],
      "stateMutability": "view",
      "type": "function"
    },
    {
      "inputs": [
        {
          "internalType": "uint256",
          "name": "projectId",
          "type": "uint256"
        }
      ],
      "name": "getProjectName",
      "outputs": [
        {
          "internalType": "string",
          "name": "",
          "type": "string"
        }
      ],
      "stateMutability": "view",
      "type": "function"
    },
    {
      "inputs": [
        {
          "internalType": "uint256",
          "name": "projectId",
          "type": "uint256"
        }
      ],
      "name": "getProjectOwner",
      "outputs": [
        {
          "internalType": "address",
          "name": "",
          "type": "address"
        }
      ],
      "stateMutability": "view",
      "type": "function"
    }
  ],
  "bytecode": "0x608060405234801561001057600080fd5b50610737806100206000396000f3fe608060405234801561001057600080fd5b50600436106100885760003560e01c8063ac189a121161005b578063ac189a1214610174578063cf7be6ec14610187578063f1fa906c1461019a578063f322deb8146101ad57600080fd5b80635317234e1461008d578063845ab425146100f657806392256aec1461011f578063a971c73914610163575b600080fd5b6100f461009b3660046105ff565b6000918252600160208181526040842060030180549283018155845290922090910180547fffffffffffffffffffffffff0000000000000000000000000000000000000000166001600160a01b03909216919091179055565b005b6101096101043660046105e7565b6101cd565b6040516101169190610686565b60405180910390f35b61014b61012d3660046105e7565b6000908152600160205260409020600401546001600160a01b031690565b6040516001600160a01b039091168152602001610116565b600054604051908152602001610116565b6101096101823660046105e7565b610272565b6100f4610195366004610563565b610295565b6101096101a83660046105e7565b6103b8565b6101c06101bb3660046105e7565b6103d5565b6040516101169190610639565b60008181526001602052604090206002018054606091906101ed906106d9565b80601f0160208091040260200160405190810160405280929190818152602001828054610219906106d9565b80156102665780601f1061023b57610100808354040283529160200191610266565b820191906000526020600020905b81548152906001019060200180831161024957829003601f168201915b50505050509050919050565b60606001600083815260200190815260200160002060010180546101ed906106d9565b6102a3600080546001019055565b82600160006102b160005490565b815260200190815260200160002060000190805190602001906102d5929190610443565b5081600160006102e460005490565b81526020019081526020016000206001019080519060200190610308929190610443565b50806001600061031760005490565b8152602001908152602001600020600201908051906020019061033b929190610443565b50336001600061034a60005490565b815260200190815260200160002060040160006101000a8154816001600160a01b0302191690836001600160a01b0316021790555061038860005490565b60405133907f4a31f5ac372495eeadf90f1b0d3a4693dbb858e9f2e9730987f6d93338dc06ac90600090a3505050565b60008181526001602052604090208054606091906101ed906106d9565b60008181526001602090815260409182902060030180548351818402810184019094528084526060939283018282801561026657602002820191906000526020600020905b81546001600160a01b0316815260019091019060200180831161041a5750505050509050919050565b82805461044f906106d9565b90600052602060002090601f01602090048101928261047157600085556104b7565b82601f1061048a57805160ff19168380011785556104b7565b828001600101855582156104b7579182015b828111156104b757825182559160200191906001019061049c565b506104c39291506104c7565b5090565b5b808211156104c357600081556001016104c8565b600082601f8301126104ec578081fd5b813567ffffffffffffffff8082111561050757610507610714565b604051601f8301601f19908116603f0116810190828211818310171561052f5761052f610714565b81604052838152866020858801011115610547578485fd5b8360208701602083013792830160200193909352509392505050565b600080600060608486031215610577578283fd5b833567ffffffffffffffff8082111561058e578485fd5b61059a878388016104dc565b945060208601359150808211156105af578384fd5b6105bb878388016104dc565b935060408601359150808211156105d0578283fd5b506105dd868287016104dc565b9150509250925092565b6000602082840312156105f8578081fd5b5035919050565b60008060408385031215610611578182fd5b8235915060208301356001600160a01b038116811461062e578182fd5b809150509250929050565b6020808252825182820181905260009190848201906040850190845b8181101561067a5783516001600160a01b031683529284019291840191600101610655565b50909695505050505050565b6000602080835283518082850152825b818110156106b257858101830151858201604001528201610696565b818111156106c35783604083870101525b50601f01601f1916929092016040019392505050565b600181811c908216806106ed57607f821691505b6020821081141561070e57634e487b7160e01b600052602260045260246000fd5b50919050565b634e487b7160e01b600052604160045260246000fdfea164736f6c6343000804000a",
  "linkReferences": {},
  "deployedLinkReferences": {}
}