{
  "_format": "hh-sol-artifact-1",
  "contractName": "DevoProject",
  "sourceName": "contracts/DevoProject.sol",
  "abi": [
    {
      "anonymous": false,
      "inputs": [
        {
          "indexed": true,
          "internalType": "address",
          "name": "_owner",
          "type": "address"
        },
        {
          "indexed": true,
          "internalType": "uint256",
          "name": "_id",
          "type": "uint256"
        }
      ],
      "name": "AddProject",
      "type": "event"
    },
    {
      "inputs": [
        {
          "internalType": "string",
          "name": "name",
          "type": "string"
        }
      ],
      "name": "createProject",
      "outputs": [],
      "stateMutability": "nonpayable",
      "type": "function"
    },
    {
      "inputs": [
        {
          "internalType": "uint256",
          "name": "projectId",
          "type": "uint256"
        }
      ],
      "name": "getProjectName",
      "outputs": [
        {
          "internalType": "string",
          "name": "",
          "type": "string"
        }
      ],
      "stateMutability": "view",
      "type": "function"
    }
  ],
  "bytecode": "0x608060405234801561001057600080fd5b506103b0806100206000396000f3fe608060405234801561001057600080fd5b50600436106100365760003560e01c806315ee4df11461003b578063f1fa906c14610050575b600080fd5b61004e61004936600461023d565b610079565b005b61006361005e3660046102e7565b6100f6565b60405161007091906102ff565b60405180910390f35b610087600080546001019055565b33600090815260016020526040812082916100a0815490565b815260200190815260200160002060000190805190602001906100c49291906101a4565b5060005460405133907f4a31f5ac372495eeadf90f1b0d3a4693dbb858e9f2e9730987f6d93338dc06ac90600090a350565b336000908152600160209081526040808320848452909152902080546060919061011f90610352565b80601f016020809104026020016040519081016040528092919081815260200182805461014b90610352565b80156101985780601f1061016d57610100808354040283529160200191610198565b820191906000526020600020905b81548152906001019060200180831161017b57829003601f168201915b50505050509050919050565b8280546101b090610352565b90600052602060002090601f0160209004810192826101d25760008555610218565b82601f106101eb57805160ff1916838001178555610218565b82800160010185558215610218579182015b828111156102185782518255916020019190600101906101fd565b50610224929150610228565b5090565b5b808211156102245760008155600101610229565b60006020828403121561024e578081fd5b813567ffffffffffffffff80821115610265578283fd5b818401915084601f830112610278578283fd5b81358181111561028a5761028a61038d565b604051601f8201601f19908116603f011681019083821181831017156102b2576102b261038d565b816040528281528760208487010111156102ca578586fd5b826020860160208301379182016020019490945295945050505050565b6000602082840312156102f8578081fd5b5035919050565b6000602080835283518082850152825b8181101561032b5785810183015185820160400152820161030f565b8181111561033c5783604083870101525b50601f01601f1916929092016040019392505050565b600181811c9082168061036657607f821691505b6020821081141561038757634e487b7160e01b600052602260045260246000fd5b50919050565b634e487b7160e01b600052604160045260246000fdfea164736f6c6343000804000a",
  "linkReferences": {},
  "deployedLinkReferences": {}
}